{
	"contracts/voting.sol": {
		"voting": {
			"abi": [
				{
					"inputs": [],
					"stateMutability": "nonpayable",
					"type": "constructor"
				},
				{
					"inputs": [
						{
							"internalType": "uint256",
							"name": "",
							"type": "uint256"
						}
					],
					"name": "candidatesList",
					"outputs": [
						{
							"internalType": "address",
							"name": "",
							"type": "address"
						}
					],
					"stateMutability": "view",
					"type": "function"
				},
				{
					"inputs": [],
					"name": "contractOwner",
					"outputs": [
						{
							"internalType": "address",
							"name": "",
							"type": "address"
						}
					],
					"stateMutability": "view",
					"type": "function"
				},
				{
					"inputs": [
						{
							"internalType": "address",
							"name": "_candidate",
							"type": "address"
						}
					],
					"name": "registerCandidates",
					"outputs": [],
					"stateMutability": "nonpayable",
					"type": "function"
				},
				{
					"inputs": [],
					"name": "result",
					"outputs": [],
					"stateMutability": "nonpayable",
					"type": "function"
				},
				{
					"inputs": [],
					"name": "setStatus",
					"outputs": [],
					"stateMutability": "nonpayable",
					"type": "function"
				},
				{
					"inputs": [],
					"name": "status",
					"outputs": [
						{
							"internalType": "enum voting.votingStatus",
							"name": "",
							"type": "uint8"
						}
					],
					"stateMutability": "view",
					"type": "function"
				},
				{
					"inputs": [
						{
							"internalType": "address",
							"name": "_candidate",
							"type": "address"
						}
					],
					"name": "validadeCandidate",
					"outputs": [
						{
							"internalType": "bool",
							"name": "",
							"type": "bool"
						}
					],
					"stateMutability": "view",
					"type": "function"
				},
				{
					"inputs": [
						{
							"internalType": "address",
							"name": "_candidate",
							"type": "address"
						}
					],
					"name": "vote",
					"outputs": [],
					"stateMutability": "nonpayable",
					"type": "function"
				},
				{
					"inputs": [
						{
							"internalType": "address",
							"name": "_candidate",
							"type": "address"
						}
					],
					"name": "votesCount",
					"outputs": [
						{
							"internalType": "uint256",
							"name": "",
							"type": "uint256"
						}
					],
					"stateMutability": "view",
					"type": "function"
				},
				{
					"inputs": [
						{
							"internalType": "address",
							"name": "",
							"type": "address"
						}
					],
					"name": "votesRecieved",
					"outputs": [
						{
							"internalType": "uint8",
							"name": "",
							"type": "uint8"
						}
					],
					"stateMutability": "view",
					"type": "function"
				},
				{
					"inputs": [],
					"name": "winner",
					"outputs": [
						{
							"internalType": "address",
							"name": "",
							"type": "address"
						}
					],
					"stateMutability": "view",
					"type": "function"
				},
				{
					"inputs": [],
					"name": "winnerVotes",
					"outputs": [
						{
							"internalType": "uint256",
							"name": "",
							"type": "uint256"
						}
					],
					"stateMutability": "view",
					"type": "function"
				}
			],
			"devdoc": {
				"kind": "dev",
				"methods": {},
				"version": 1
			},
			"evm": {
				"assembly": "    /* \"contracts/voting.sol\":68:2017  contract voting{\r... */\n  mstore(0x40, 0x80)\n    /* \"contracts/voting.sol\":376:435  constructor() {\r... */\n  callvalue\n  dup1\n  iszero\n  tag_1\n  jumpi\n  0x00\n  dup1\n  revert\ntag_1:\n  pop\n    /* \"contracts/voting.sol\":417:427  msg.sender */\n  caller\n    /* \"contracts/voting.sol\":401:414  contractOwner */\n  0x00\n  dup1\n    /* \"contracts/voting.sol\":401:427  contractOwner = msg.sender */\n  0x0100\n  exp\n  dup2\n  sload\n  dup2\n  0xffffffffffffffffffffffffffffffffffffffff\n  mul\n  not\n  and\n  swap1\n  dup4\n  0xffffffffffffffffffffffffffffffffffffffff\n  and\n  mul\n  or\n  swap1\n  sstore\n  pop\n    /* \"contracts/voting.sol\":68:2017  contract voting{\r... */\n  dataSize(sub_0)\n  dup1\n  dataOffset(sub_0)\n  0x00\n  codecopy\n  0x00\n  return\nstop\n\nsub_0: assembly {\n        /* \"contracts/voting.sol\":68:2017  contract voting{\r... */\n      mstore(0x40, 0x80)\n      callvalue\n      dup1\n      iszero\n      tag_1\n      jumpi\n      0x00\n      dup1\n      revert\n    tag_1:\n      pop\n      jumpi(tag_2, lt(calldatasize, 0x04))\n      shr(0xe0, calldataload(0x00))\n      dup1\n      0xc0c45a81\n      gt\n      tag_15\n      jumpi\n      dup1\n      0xc0c45a81\n      eq\n      tag_9\n      jumpi\n      dup1\n      0xce606ee0\n      eq\n      tag_10\n      jumpi\n      dup1\n      0xd209cd68\n      eq\n      tag_11\n      jumpi\n      dup1\n      0xdb9b13ed\n      eq\n      tag_12\n      jumpi\n      dup1\n      0xdf2d5ec7\n      eq\n      tag_13\n      jumpi\n      dup1\n      0xdfbf53ae\n      eq\n      tag_14\n      jumpi\n      jump(tag_2)\n    tag_15:\n      dup1\n      0x200d2ed2\n      eq\n      tag_3\n      jumpi\n      dup1\n      0x65372147\n      eq\n      tag_4\n      jumpi\n      dup1\n      0x6dd7d8ea\n      eq\n      tag_5\n      jumpi\n      dup1\n      0x7b3a74c6\n      eq\n      tag_6\n      jumpi\n      dup1\n      0x947da8dc\n      eq\n      tag_7\n      jumpi\n      dup1\n      0xc0336629\n      eq\n      tag_8\n      jumpi\n    tag_2:\n      0x00\n      dup1\n      revert\n        /* \"contracts/voting.sol\":341:367  votingStatus public status */\n    tag_3:\n      tag_16\n      tag_17\n      jump\t// in\n    tag_16:\n      mload(0x40)\n      dup1\n      dup3\n      0x02\n      dup2\n      gt\n      iszero\n      tag_18\n      jumpi\n      invalid\n    tag_18:\n      dup2\n      mstore\n      0x20\n      add\n      swap2\n      pop\n      pop\n      mload(0x40)\n      dup1\n      swap2\n      sub\n      swap1\n      return\n        /* \"contracts/voting.sol\":1635:2008  function result() public{\r... */\n    tag_4:\n      tag_19\n      tag_20\n      jump\t// in\n    tag_19:\n      stop\n        /* \"contracts/voting.sol\":889:1102  function vote(address _candidate) public{\r... */\n    tag_5:\n      tag_21\n      0x04\n      dup1\n      calldatasize\n      sub\n      0x20\n      dup2\n      lt\n      iszero\n      tag_22\n      jumpi\n      0x00\n      dup1\n      revert\n    tag_22:\n      dup2\n      add\n      swap1\n      dup1\n      dup1\n      calldataload\n      0xffffffffffffffffffffffffffffffffffffffff\n      and\n      swap1\n      0x20\n      add\n      swap1\n      swap3\n      swap2\n      swap1\n      pop\n      pop\n      pop\n      tag_23\n      jump\t// in\n    tag_21:\n      stop\n        /* \"contracts/voting.sol\":253:276  uint public winnerVotes */\n    tag_6:\n      tag_24\n      tag_25\n      jump\t// in\n    tag_24:\n      mload(0x40)\n      dup1\n      dup3\n      dup2\n      mstore\n      0x20\n      add\n      swap2\n      pop\n      pop\n      mload(0x40)\n      dup1\n      swap2\n      sub\n      swap1\n      return\n        /* \"contracts/voting.sol\":1110:1379  function validadeCandidate(address _candidate) view public returns(bool){\r... */\n    tag_7:\n      tag_26\n      0x04\n      dup1\n      calldatasize\n      sub\n      0x20\n      dup2\n      lt\n      iszero\n      tag_27\n      jumpi\n      0x00\n      dup1\n      revert\n    tag_27:\n      dup2\n      add\n      swap1\n      dup1\n      dup1\n      calldataload\n      0xffffffffffffffffffffffffffffffffffffffff\n      and\n      swap1\n      0x20\n      add\n      swap1\n      swap3\n      swap2\n      swap1\n      pop\n      pop\n      pop\n      tag_28\n      jump\t// in\n    tag_26:\n      mload(0x40)\n      dup1\n      dup3\n      iszero\n      iszero\n      dup2\n      mstore\n      0x20\n      add\n      swap2\n      pop\n      pop\n      mload(0x40)\n      dup1\n      swap2\n      sub\n      swap1\n      return\n        /* \"contracts/voting.sol\":546:755  function setStatus() OnlyOnwer public{\r... */\n    tag_8:\n      tag_29\n      tag_30\n      jump\t// in\n    tag_29:\n      stop\n        /* \"contracts/voting.sol\":767:881  function registerCandidates(address _candidate) OnlyOnwer public{\r... */\n    tag_9:\n      tag_31\n      0x04\n      dup1\n      calldatasize\n      sub\n      0x20\n      dup2\n      lt\n      iszero\n      tag_32\n      jumpi\n      0x00\n      dup1\n      revert\n    tag_32:\n      dup2\n      add\n      swap1\n      dup1\n      dup1\n      calldataload\n      0xffffffffffffffffffffffffffffffffffffffff\n      and\n      swap1\n      0x20\n      add\n      swap1\n      swap3\n      swap2\n      swap1\n      pop\n      pop\n      pop\n      tag_33\n      jump\t// in\n    tag_31:\n      stop\n        /* \"contracts/voting.sol\":92:120  address public contractOwner */\n    tag_10:\n      tag_34\n      tag_35\n      jump\t// in\n    tag_34:\n      mload(0x40)\n      dup1\n      dup3\n      0xffffffffffffffffffffffffffffffffffffffff\n      and\n      dup2\n      mstore\n      0x20\n      add\n      swap2\n      pop\n      pop\n      mload(0x40)\n      dup1\n      swap2\n      sub\n      swap1\n      return\n        /* \"contracts/voting.sol\":1387:1627  function votesCount(address _candidate) public view returns(uint){\r... */\n    tag_11:\n      tag_36\n      0x04\n      dup1\n      calldatasize\n      sub\n      0x20\n      dup2\n      lt\n      iszero\n      tag_37\n      jumpi\n      0x00\n      dup1\n      revert\n    tag_37:\n      dup2\n      add\n      swap1\n      dup1\n      dup1\n      calldataload\n      0xffffffffffffffffffffffffffffffffffffffff\n      and\n      swap1\n      0x20\n      add\n      swap1\n      swap3\n      swap2\n      swap1\n      pop\n      pop\n      pop\n      tag_38\n      jump\t// in\n    tag_36:\n      mload(0x40)\n      dup1\n      dup3\n      dup2\n      mstore\n      0x20\n      add\n      swap2\n      pop\n      pop\n      mload(0x40)\n      dup1\n      swap2\n      sub\n      swap1\n      return\n        /* \"contracts/voting.sol\":169:216  mapping (address => uint8) public votesRecieved */\n    tag_12:\n      tag_39\n      0x04\n      dup1\n      calldatasize\n      sub\n      0x20\n      dup2\n      lt\n      iszero\n      tag_40\n      jumpi\n      0x00\n      dup1\n      revert\n    tag_40:\n      dup2\n      add\n      swap1\n      dup1\n      dup1\n      calldataload\n      0xffffffffffffffffffffffffffffffffffffffff\n      and\n      swap1\n      0x20\n      add\n      swap1\n      swap3\n      swap2\n      swap1\n      pop\n      pop\n      pop\n      tag_41\n      jump\t// in\n    tag_39:\n      mload(0x40)\n      dup1\n      dup3\n      0xff\n      and\n      dup2\n      mstore\n      0x20\n      add\n      swap2\n      pop\n      pop\n      mload(0x40)\n      dup1\n      swap2\n      sub\n      swap1\n      return\n        /* \"contracts/voting.sol\":129:160  address[] public candidatesList */\n    tag_13:\n      tag_42\n      0x04\n      dup1\n      calldatasize\n      sub\n      0x20\n      dup2\n      lt\n      iszero\n      tag_43\n      jumpi\n      0x00\n      dup1\n      revert\n    tag_43:\n      dup2\n      add\n      swap1\n      dup1\n      dup1\n      calldataload\n      swap1\n      0x20\n      add\n      swap1\n      swap3\n      swap2\n      swap1\n      pop\n      pop\n      pop\n      tag_44\n      jump\t// in\n    tag_42:\n      mload(0x40)\n      dup1\n      dup3\n      0xffffffffffffffffffffffffffffffffffffffff\n      and\n      dup2\n      mstore\n      0x20\n      add\n      swap2\n      pop\n      pop\n      mload(0x40)\n      dup1\n      swap2\n      sub\n      swap1\n      return\n        /* \"contracts/voting.sol\":225:246  address public winner */\n    tag_14:\n      tag_45\n      tag_46\n      jump\t// in\n    tag_45:\n      mload(0x40)\n      dup1\n      dup3\n      0xffffffffffffffffffffffffffffffffffffffff\n      and\n      dup2\n      mstore\n      0x20\n      add\n      swap2\n      pop\n      pop\n      mload(0x40)\n      dup1\n      swap2\n      sub\n      swap1\n      return\n        /* \"contracts/voting.sol\":341:367  votingStatus public status */\n    tag_17:\n      0x05\n      0x00\n      swap1\n      sload\n      swap1\n      0x0100\n      exp\n      swap1\n      div\n      0xff\n      and\n      dup2\n      jump\t// out\n        /* \"contracts/voting.sol\":1635:2008  function result() public{\r... */\n    tag_20:\n        /* \"contracts/voting.sol\":1688:1710  votingStatus.Completed */\n      0x02\n        /* \"contracts/voting.sol\":1678:1710  status == votingStatus.Completed */\n      dup1\n      dup2\n      gt\n      iszero\n      tag_48\n      jumpi\n      invalid\n    tag_48:\n        /* \"contracts/voting.sol\":1678:1684  status */\n      0x05\n      0x00\n      swap1\n      sload\n      swap1\n      0x0100\n      exp\n      swap1\n      div\n      0xff\n      and\n        /* \"contracts/voting.sol\":1678:1710  status == votingStatus.Completed */\n      0x02\n      dup2\n      gt\n      iszero\n      tag_49\n      jumpi\n      invalid\n    tag_49:\n      eq\n        /* \"contracts/voting.sol\":1670:1741  require(status == votingStatus.Completed, \"Voting is not completed!!!\") */\n      tag_50\n      jumpi\n      mload(0x40)\n      0x08c379a000000000000000000000000000000000000000000000000000000000\n      dup2\n      mstore\n      0x04\n      add\n      dup1\n      dup1\n      0x20\n      add\n      dup3\n      dup2\n      sub\n      dup3\n      mstore\n      0x1a\n      dup2\n      mstore\n      0x20\n      add\n      dup1\n      0x566f74696e67206973206e6f7420636f6d706c65746564212121000000000000\n      dup2\n      mstore\n      pop\n      0x20\n      add\n      swap2\n      pop\n      pop\n      mload(0x40)\n      dup1\n      swap2\n      sub\n      swap1\n      revert\n    tag_50:\n        /* \"contracts/voting.sol\":1756:1762  uint i */\n      0x00\n        /* \"contracts/voting.sol\":1752:2001  for(uint i = 0; i < candidatesList.length; i++){\r... */\n    tag_51:\n        /* \"contracts/voting.sol\":1772:1786  candidatesList */\n      0x01\n        /* \"contracts/voting.sol\":1772:1793  candidatesList.length */\n      dup1\n      sload\n      swap1\n      pop\n        /* \"contracts/voting.sol\":1768:1769  i */\n      dup2\n        /* \"contracts/voting.sol\":1768:1793  i < candidatesList.length */\n      lt\n        /* \"contracts/voting.sol\":1752:2001  for(uint i = 0; i < candidatesList.length; i++){\r... */\n      iszero\n      tag_52\n      jumpi\n        /* \"contracts/voting.sol\":1852:1863  winnerVotes */\n      sload(0x04)\n        /* \"contracts/voting.sol\":1817:1830  votesRecieved */\n      0x02\n        /* \"contracts/voting.sol\":1817:1849  votesRecieved[candidatesList[i]] */\n      0x00\n        /* \"contracts/voting.sol\":1831:1845  candidatesList */\n      0x01\n        /* \"contracts/voting.sol\":1846:1847  i */\n      dup5\n        /* \"contracts/voting.sol\":1831:1848  candidatesList[i] */\n      dup2\n      sload\n      dup2\n      lt\n      tag_54\n      jumpi\n      invalid\n    tag_54:\n      swap1\n      0x00\n      mstore\n      keccak256(0x00, 0x20)\n      add\n      0x00\n      swap1\n      sload\n      swap1\n      0x0100\n      exp\n      swap1\n      div\n      0xffffffffffffffffffffffffffffffffffffffff\n      and\n        /* \"contracts/voting.sol\":1817:1849  votesRecieved[candidatesList[i]] */\n      0xffffffffffffffffffffffffffffffffffffffff\n      and\n      0xffffffffffffffffffffffffffffffffffffffff\n      and\n      dup2\n      mstore\n      0x20\n      add\n      swap1\n      dup2\n      mstore\n      0x20\n      add\n      0x00\n      keccak256\n      0x00\n      swap1\n      sload\n      swap1\n      0x0100\n      exp\n      swap1\n      div\n      0xff\n      and\n        /* \"contracts/voting.sol\":1817:1863  votesRecieved[candidatesList[i]] > winnerVotes */\n      0xff\n      and\n      gt\n        /* \"contracts/voting.sol\":1814:1990  if(votesRecieved[candidatesList[i]] > winnerVotes){\r... */\n      iszero\n      tag_56\n      jumpi\n        /* \"contracts/voting.sol\":1897:1910  votesRecieved */\n      0x02\n        /* \"contracts/voting.sol\":1897:1929  votesRecieved[candidatesList[i]] */\n      0x00\n        /* \"contracts/voting.sol\":1911:1925  candidatesList */\n      0x01\n        /* \"contracts/voting.sol\":1926:1927  i */\n      dup4\n        /* \"contracts/voting.sol\":1911:1928  candidatesList[i] */\n      dup2\n      sload\n      dup2\n      lt\n      tag_57\n      jumpi\n      invalid\n    tag_57:\n      swap1\n      0x00\n      mstore\n      keccak256(0x00, 0x20)\n      add\n      0x00\n      swap1\n      sload\n      swap1\n      0x0100\n      exp\n      swap1\n      div\n      0xffffffffffffffffffffffffffffffffffffffff\n      and\n        /* \"contracts/voting.sol\":1897:1929  votesRecieved[candidatesList[i]] */\n      0xffffffffffffffffffffffffffffffffffffffff\n      and\n      0xffffffffffffffffffffffffffffffffffffffff\n      and\n      dup2\n      mstore\n      0x20\n      add\n      swap1\n      dup2\n      mstore\n      0x20\n      add\n      0x00\n      keccak256\n      0x00\n      swap1\n      sload\n      swap1\n      0x0100\n      exp\n      swap1\n      div\n      0xff\n      and\n        /* \"contracts/voting.sol\":1883:1929  winnerVotes = votesRecieved[candidatesList[i]] */\n      0xff\n      and\n        /* \"contracts/voting.sol\":1883:1894  winnerVotes */\n      0x04\n        /* \"contracts/voting.sol\":1883:1929  winnerVotes = votesRecieved[candidatesList[i]] */\n      dup2\n      swap1\n      sstore\n      pop\n        /* \"contracts/voting.sol\":1957:1971  candidatesList */\n      0x01\n        /* \"contracts/voting.sol\":1972:1973  i */\n      dup2\n        /* \"contracts/voting.sol\":1957:1974  candidatesList[i] */\n      dup2\n      sload\n      dup2\n      lt\n      tag_59\n      jumpi\n      invalid\n    tag_59:\n      swap1\n      0x00\n      mstore\n      keccak256(0x00, 0x20)\n      add\n      0x00\n      swap1\n      sload\n      swap1\n      0x0100\n      exp\n      swap1\n      div\n      0xffffffffffffffffffffffffffffffffffffffff\n      and\n        /* \"contracts/voting.sol\":1948:1954  winner */\n      0x03\n      0x00\n        /* \"contracts/voting.sol\":1948:1974  winner = candidatesList[i] */\n      0x0100\n      exp\n      dup2\n      sload\n      dup2\n      0xffffffffffffffffffffffffffffffffffffffff\n      mul\n      not\n      and\n      swap1\n      dup4\n      0xffffffffffffffffffffffffffffffffffffffff\n      and\n      mul\n      or\n      swap1\n      sstore\n      pop\n        /* \"contracts/voting.sol\":1814:1990  if(votesRecieved[candidatesList[i]] > winnerVotes){\r... */\n    tag_56:\n        /* \"contracts/voting.sol\":1795:1798  i++ */\n      dup1\n      dup1\n      0x01\n      add\n      swap2\n      pop\n      pop\n        /* \"contracts/voting.sol\":1752:2001  for(uint i = 0; i < candidatesList.length; i++){\r... */\n      jump(tag_51)\n    tag_52:\n      pop\n        /* \"contracts/voting.sol\":1635:2008  function result() public{\r... */\n      jump\t// out\n        /* \"contracts/voting.sol\":889:1102  function vote(address _candidate) public{\r... */\n    tag_23:\n        /* \"contracts/voting.sol\":948:977  validadeCandidate(_candidate) */\n      tag_62\n        /* \"contracts/voting.sol\":966:976  _candidate */\n      dup2\n        /* \"contracts/voting.sol\":948:965  validadeCandidate */\n      tag_28\n        /* \"contracts/voting.sol\":948:977  validadeCandidate(_candidate) */\n      jump\t// in\n    tag_62:\n        /* \"contracts/voting.sol\":940:1004  require(validadeCandidate(_candidate), \"Candidate not valid!!!\") */\n      tag_63\n      jumpi\n      mload(0x40)\n      0x08c379a000000000000000000000000000000000000000000000000000000000\n      dup2\n      mstore\n      0x04\n      add\n      dup1\n      dup1\n      0x20\n      add\n      dup3\n      dup2\n      sub\n      dup3\n      mstore\n      0x16\n      dup2\n      mstore\n      0x20\n      add\n      dup1\n      0x43616e646964617465206e6f742076616c696421212100000000000000000000\n      dup2\n      mstore\n      pop\n      0x20\n      add\n      swap2\n      pop\n      pop\n      mload(0x40)\n      dup1\n      swap2\n      sub\n      swap1\n      revert\n    tag_63:\n        /* \"contracts/voting.sol\":1032:1052  votingStatus.Running */\n      0x01\n        /* \"contracts/voting.sol\":1022:1052  status == votingStatus.Running */\n      0x02\n      dup2\n      gt\n      iszero\n      tag_64\n      jumpi\n      invalid\n    tag_64:\n        /* \"contracts/voting.sol\":1022:1028  status */\n      0x05\n      0x00\n      swap1\n      sload\n      swap1\n      0x0100\n      exp\n      swap1\n      div\n      0xff\n      and\n        /* \"contracts/voting.sol\":1022:1052  status == votingStatus.Running */\n      0x02\n      dup2\n      gt\n      iszero\n      tag_65\n      jumpi\n      invalid\n    tag_65:\n      eq\n        /* \"contracts/voting.sol\":1015:1053  assert(status == votingStatus.Running) */\n      tag_66\n      jumpi\n      invalid\n    tag_66:\n        /* \"contracts/voting.sol\":1093:1094  1 */\n      0x01\n        /* \"contracts/voting.sol\":1064:1077  votesRecieved */\n      0x02\n        /* \"contracts/voting.sol\":1064:1089  votesRecieved[_candidate] */\n      0x00\n        /* \"contracts/voting.sol\":1078:1088  _candidate */\n      dup4\n        /* \"contracts/voting.sol\":1064:1089  votesRecieved[_candidate] */\n      0xffffffffffffffffffffffffffffffffffffffff\n      and\n      0xffffffffffffffffffffffffffffffffffffffff\n      and\n      dup2\n      mstore\n      0x20\n      add\n      swap1\n      dup2\n      mstore\n      0x20\n      add\n      0x00\n      keccak256\n      0x00\n        /* \"contracts/voting.sol\":1064:1094  votesRecieved[_candidate] += 1 */\n      dup3\n      dup3\n      dup3\n      swap1\n      sload\n      swap1\n      0x0100\n      exp\n      swap1\n      div\n      0xff\n      and\n      add\n      swap3\n      pop\n      0x0100\n      exp\n      dup2\n      sload\n      dup2\n      0xff\n      mul\n      not\n      and\n      swap1\n      dup4\n      0xff\n      and\n      mul\n      or\n      swap1\n      sstore\n      pop\n        /* \"contracts/voting.sol\":889:1102  function vote(address _candidate) public{\r... */\n      pop\n      jump\t// out\n        /* \"contracts/voting.sol\":253:276  uint public winnerVotes */\n    tag_25:\n      sload(0x04)\n      dup2\n      jump\t// out\n        /* \"contracts/voting.sol\":1110:1379  function validadeCandidate(address _candidate) view public returns(bool){\r... */\n    tag_28:\n        /* \"contracts/voting.sol\":1177:1181  bool */\n      0x00\n        /* \"contracts/voting.sol\":1199:1205  uint i */\n      dup1\n        /* \"contracts/voting.sol\":1208:1209  0 */\n      0x00\n        /* \"contracts/voting.sol\":1199:1209  uint i = 0 */\n      swap1\n      pop\n        /* \"contracts/voting.sol\":1195:1349  for(uint i = 0; i < candidatesList.length; i++){\r... */\n    tag_68:\n        /* \"contracts/voting.sol\":1215:1229  candidatesList */\n      0x01\n        /* \"contracts/voting.sol\":1215:1236  candidatesList.length */\n      dup1\n      sload\n      swap1\n      pop\n        /* \"contracts/voting.sol\":1211:1212  i */\n      dup2\n        /* \"contracts/voting.sol\":1211:1236  i < candidatesList.length */\n      lt\n        /* \"contracts/voting.sol\":1195:1349  for(uint i = 0; i < candidatesList.length; i++){\r... */\n      iszero\n      tag_69\n      jumpi\n        /* \"contracts/voting.sol\":1281:1291  _candidate */\n      dup3\n        /* \"contracts/voting.sol\":1260:1291  candidatesList[i] == _candidate */\n      0xffffffffffffffffffffffffffffffffffffffff\n      and\n        /* \"contracts/voting.sol\":1260:1274  candidatesList */\n      0x01\n        /* \"contracts/voting.sol\":1275:1276  i */\n      dup3\n        /* \"contracts/voting.sol\":1260:1277  candidatesList[i] */\n      dup2\n      sload\n      dup2\n      lt\n      tag_71\n      jumpi\n      invalid\n    tag_71:\n      swap1\n      0x00\n      mstore\n      keccak256(0x00, 0x20)\n      add\n      0x00\n      swap1\n      sload\n      swap1\n      0x0100\n      exp\n      swap1\n      div\n      0xffffffffffffffffffffffffffffffffffffffff\n      and\n        /* \"contracts/voting.sol\":1260:1291  candidatesList[i] == _candidate */\n      0xffffffffffffffffffffffffffffffffffffffff\n      and\n      eq\n        /* \"contracts/voting.sol\":1257:1338  if(candidatesList[i] == _candidate){\r... */\n      iszero\n      tag_73\n      jumpi\n        /* \"contracts/voting.sol\":1318:1322  true */\n      0x01\n        /* \"contracts/voting.sol\":1311:1322  return true */\n      swap2\n      pop\n      pop\n      jump(tag_67)\n        /* \"contracts/voting.sol\":1257:1338  if(candidatesList[i] == _candidate){\r... */\n    tag_73:\n        /* \"contracts/voting.sol\":1238:1241  i++ */\n      dup1\n      dup1\n      0x01\n      add\n      swap2\n      pop\n      pop\n        /* \"contracts/voting.sol\":1195:1349  for(uint i = 0; i < candidatesList.length; i++){\r... */\n      jump(tag_68)\n    tag_69:\n      pop\n        /* \"contracts/voting.sol\":1366:1371  false */\n      0x00\n        /* \"contracts/voting.sol\":1359:1371  return false */\n      swap1\n      pop\n        /* \"contracts/voting.sol\":1110:1379  function validadeCandidate(address _candidate) view public returns(bool){\r... */\n    tag_67:\n      swap2\n      swap1\n      pop\n      jump\t// out\n        /* \"contracts/voting.sol\":546:755  function setStatus() OnlyOnwer public{\r... */\n    tag_30:\n        /* \"contracts/voting.sol\":489:502  contractOwner */\n      0x00\n      dup1\n      sload\n      swap1\n      0x0100\n      exp\n      swap1\n      div\n      0xffffffffffffffffffffffffffffffffffffffff\n      and\n        /* \"contracts/voting.sol\":475:502  msg.sender == contractOwner */\n      0xffffffffffffffffffffffffffffffffffffffff\n      and\n        /* \"contracts/voting.sol\":475:485  msg.sender */\n      caller\n        /* \"contracts/voting.sol\":475:502  msg.sender == contractOwner */\n      0xffffffffffffffffffffffffffffffffffffffff\n      and\n      eq\n        /* \"contracts/voting.sol\":472:531  if(msg.sender == contractOwner){\r... */\n      iszero\n      tag_75\n      jumpi\n        /* \"contracts/voting.sol\":607:629  votingStatus.Completed */\n      0x02\n        /* \"contracts/voting.sol\":597:629  status != votingStatus.Completed */\n      dup1\n      dup2\n      gt\n      iszero\n      tag_77\n      jumpi\n      invalid\n    tag_77:\n        /* \"contracts/voting.sol\":597:603  status */\n      0x05\n      0x00\n      swap1\n      sload\n      swap1\n      0x0100\n      exp\n      swap1\n      div\n      0xff\n      and\n        /* \"contracts/voting.sol\":597:629  status != votingStatus.Completed */\n      0x02\n      dup2\n      gt\n      iszero\n      tag_78\n      jumpi\n      invalid\n    tag_78:\n      eq\n        /* \"contracts/voting.sol\":594:748  if(status != votingStatus.Completed){\r... */\n      tag_79\n      jumpi\n        /* \"contracts/voting.sol\":654:674  votingStatus.Running */\n      0x01\n        /* \"contracts/voting.sol\":645:651  status */\n      0x05\n      0x00\n        /* \"contracts/voting.sol\":645:674  status = votingStatus.Running */\n      0x0100\n      exp\n      dup2\n      sload\n      dup2\n      0xff\n      mul\n      not\n      and\n      swap1\n      dup4\n      0x02\n      dup2\n      gt\n      iszero\n      tag_80\n      jumpi\n      invalid\n    tag_80:\n      mul\n      or\n      swap1\n      sstore\n      pop\n        /* \"contracts/voting.sol\":594:748  if(status != votingStatus.Completed){\r... */\n      jump(tag_81)\n    tag_79:\n        /* \"contracts/voting.sol\":714:736  votingStatus.Completed */\n      0x02\n        /* \"contracts/voting.sol\":705:711  status */\n      0x05\n      0x00\n        /* \"contracts/voting.sol\":705:736  status = votingStatus.Completed */\n      0x0100\n      exp\n      dup2\n      sload\n      dup2\n      0xff\n      mul\n      not\n      and\n      swap1\n      dup4\n      0x02\n      dup2\n      gt\n      iszero\n      tag_82\n      jumpi\n      invalid\n    tag_82:\n      mul\n      or\n      swap1\n      sstore\n      pop\n        /* \"contracts/voting.sol\":594:748  if(status != votingStatus.Completed){\r... */\n    tag_81:\n        /* \"contracts/voting.sol\":472:531  if(msg.sender == contractOwner){\r... */\n    tag_75:\n        /* \"contracts/voting.sol\":546:755  function setStatus() OnlyOnwer public{\r... */\n      jump\t// out\n        /* \"contracts/voting.sol\":767:881  function registerCandidates(address _candidate) OnlyOnwer public{\r... */\n    tag_33:\n        /* \"contracts/voting.sol\":489:502  contractOwner */\n      0x00\n      dup1\n      sload\n      swap1\n      0x0100\n      exp\n      swap1\n      div\n      0xffffffffffffffffffffffffffffffffffffffff\n      and\n        /* \"contracts/voting.sol\":475:502  msg.sender == contractOwner */\n      0xffffffffffffffffffffffffffffffffffffffff\n      and\n        /* \"contracts/voting.sol\":475:485  msg.sender */\n      caller\n        /* \"contracts/voting.sol\":475:502  msg.sender == contractOwner */\n      0xffffffffffffffffffffffffffffffffffffffff\n      and\n      eq\n        /* \"contracts/voting.sol\":472:531  if(msg.sender == contractOwner){\r... */\n      iszero\n      tag_84\n      jumpi\n        /* \"contracts/voting.sol\":842:856  candidatesList */\n      0x01\n        /* \"contracts/voting.sol\":862:872  _candidate */\n      dup2\n        /* \"contracts/voting.sol\":842:873  candidatesList.push(_candidate) */\n      swap1\n      dup1\n      0x01\n      dup2\n      sload\n      add\n      dup1\n      dup3\n      sstore\n      dup1\n      swap2\n      pop\n      pop\n      0x01\n      swap1\n      sub\n      swap1\n      0x00\n      mstore\n      keccak256(0x00, 0x20)\n      add\n      0x00\n      swap1\n      swap2\n      swap1\n      swap2\n      swap1\n      swap2\n      0x0100\n      exp\n      dup2\n      sload\n      dup2\n      0xffffffffffffffffffffffffffffffffffffffff\n      mul\n      not\n      and\n      swap1\n      dup4\n      0xffffffffffffffffffffffffffffffffffffffff\n      and\n      mul\n      or\n      swap1\n      sstore\n      pop\n        /* \"contracts/voting.sol\":472:531  if(msg.sender == contractOwner){\r... */\n    tag_84:\n        /* \"contracts/voting.sol\":767:881  function registerCandidates(address _candidate) OnlyOnwer public{\r... */\n      pop\n      jump\t// out\n        /* \"contracts/voting.sol\":92:120  address public contractOwner */\n    tag_35:\n      0x00\n      dup1\n      sload\n      swap1\n      0x0100\n      exp\n      swap1\n      div\n      0xffffffffffffffffffffffffffffffffffffffff\n      and\n      dup2\n      jump\t// out\n        /* \"contracts/voting.sol\":1387:1627  function votesCount(address _candidate) public view returns(uint){\r... */\n    tag_38:\n        /* \"contracts/voting.sol\":1447:1451  uint */\n      0x00\n        /* \"contracts/voting.sol\":1471:1500  validadeCandidate(_candidate) */\n      tag_88\n        /* \"contracts/voting.sol\":1489:1499  _candidate */\n      dup3\n        /* \"contracts/voting.sol\":1471:1488  validadeCandidate */\n      tag_28\n        /* \"contracts/voting.sol\":1471:1500  validadeCandidate(_candidate) */\n      jump\t// in\n    tag_88:\n        /* \"contracts/voting.sol\":1463:1527  require(validadeCandidate(_candidate), \"Candidate not valid!!!\") */\n      tag_89\n      jumpi\n      mload(0x40)\n      0x08c379a000000000000000000000000000000000000000000000000000000000\n      dup2\n      mstore\n      0x04\n      add\n      dup1\n      dup1\n      0x20\n      add\n      dup3\n      dup2\n      sub\n      dup3\n      mstore\n      0x16\n      dup2\n      mstore\n      0x20\n      add\n      dup1\n      0x43616e646964617465206e6f742076616c696421212100000000000000000000\n      dup2\n      mstore\n      pop\n      0x20\n      add\n      swap2\n      pop\n      pop\n      mload(0x40)\n      dup1\n      swap2\n      sub\n      swap1\n      revert\n    tag_89:\n        /* \"contracts/voting.sol\":1555:1575  votingStatus.Running */\n      0x01\n        /* \"contracts/voting.sol\":1545:1575  status == votingStatus.Running */\n      0x02\n      dup2\n      gt\n      iszero\n      tag_90\n      jumpi\n      invalid\n    tag_90:\n        /* \"contracts/voting.sol\":1545:1551  status */\n      0x05\n      0x00\n      swap1\n      sload\n      swap1\n      0x0100\n      exp\n      swap1\n      div\n      0xff\n      and\n        /* \"contracts/voting.sol\":1545:1575  status == votingStatus.Running */\n      0x02\n      dup2\n      gt\n      iszero\n      tag_91\n      jumpi\n      invalid\n    tag_91:\n      eq\n        /* \"contracts/voting.sol\":1538:1576  assert(status == votingStatus.Running) */\n      tag_92\n      jumpi\n      invalid\n    tag_92:\n        /* \"contracts/voting.sol\":1594:1607  votesRecieved */\n      0x02\n        /* \"contracts/voting.sol\":1594:1619  votesRecieved[_candidate] */\n      0x00\n        /* \"contracts/voting.sol\":1608:1618  _candidate */\n      dup4\n        /* \"contracts/voting.sol\":1594:1619  votesRecieved[_candidate] */\n      0xffffffffffffffffffffffffffffffffffffffff\n      and\n      0xffffffffffffffffffffffffffffffffffffffff\n      and\n      dup2\n      mstore\n      0x20\n      add\n      swap1\n      dup2\n      mstore\n      0x20\n      add\n      0x00\n      keccak256\n      0x00\n      swap1\n      sload\n      swap1\n      0x0100\n      exp\n      swap1\n      div\n      0xff\n      and\n        /* \"contracts/voting.sol\":1587:1619  return votesRecieved[_candidate] */\n      0xff\n      and\n      swap1\n      pop\n        /* \"contracts/voting.sol\":1387:1627  function votesCount(address _candidate) public view returns(uint){\r... */\n      swap2\n      swap1\n      pop\n      jump\t// out\n        /* \"contracts/voting.sol\":169:216  mapping (address => uint8) public votesRecieved */\n    tag_41:\n      mstore(0x20, 0x02)\n      dup1\n      0x00\n      mstore\n      keccak256(0x00, 0x40)\n      0x00\n      swap2\n      pop\n      sload\n      swap1\n      0x0100\n      exp\n      swap1\n      div\n      0xff\n      and\n      dup2\n      jump\t// out\n        /* \"contracts/voting.sol\":129:160  address[] public candidatesList */\n    tag_44:\n      0x01\n      dup2\n      dup2\n      sload\n      dup2\n      lt\n      tag_93\n      jumpi\n      0x00\n      dup1\n      revert\n    tag_93:\n      swap1\n      0x00\n      mstore\n      keccak256(0x00, 0x20)\n      add\n      0x00\n      swap2\n      pop\n      sload\n      swap1\n      0x0100\n      exp\n      swap1\n      div\n      0xffffffffffffffffffffffffffffffffffffffff\n      and\n      dup2\n      jump\t// out\n        /* \"contracts/voting.sol\":225:246  address public winner */\n    tag_46:\n      0x03\n      0x00\n      swap1\n      sload\n      swap1\n      0x0100\n      exp\n      swap1\n      div\n      0xffffffffffffffffffffffffffffffffffffffff\n      and\n      dup2\n      jump\t// out\n\n    auxdata: 0xa2646970667358221220c67114a68b08bbfbd613e6edf3f82620266a2bd55fe3888a546270ea056dac7464736f6c63430007050033\n}\n",
				"bytecode": {
					"linkReferences": {},
					"object": "608060405234801561001057600080fd5b50336000806101000a81548173ffffffffffffffffffffffffffffffffffffffff021916908373ffffffffffffffffffffffffffffffffffffffff160217905550610afa806100606000396000f3fe608060405234801561001057600080fd5b50600436106100b45760003560e01c8063c0c45a8111610071578063c0c45a81146101b2578063ce606ee0146101f6578063d209cd681461022a578063db9b13ed14610282578063df2d5ec7146102dd578063dfbf53ae14610335576100b4565b8063200d2ed2146100b957806365372147146100e25780636dd7d8ea146100ec5780637b3a74c614610130578063947da8dc1461014e578063c0336629146101a8575b600080fd5b6100c1610369565b604051808260028111156100d157fe5b815260200191505060405180910390f35b6100ea61037c565b005b61012e6004803603602081101561010257600080fd5b81019080803573ffffffffffffffffffffffffffffffffffffffff1690602001909291905050506105cc565b005b6101386106e4565b6040518082815260200191505060405180910390f35b6101906004803603602081101561016457600080fd5b81019080803573ffffffffffffffffffffffffffffffffffffffff1690602001909291905050506106ea565b60405180821515815260200191505060405180910390f35b6101b061078c565b005b6101f4600480360360208110156101c857600080fd5b81019080803573ffffffffffffffffffffffffffffffffffffffff16906020019092919050505061085d565b005b6101fe610918565b604051808273ffffffffffffffffffffffffffffffffffffffff16815260200191505060405180910390f35b61026c6004803603602081101561024057600080fd5b81019080803573ffffffffffffffffffffffffffffffffffffffff16906020019092919050505061093c565b6040518082815260200191505060405180910390f35b6102c46004803603602081101561029857600080fd5b81019080803573ffffffffffffffffffffffffffffffffffffffff169060200190929190505050610a3f565b604051808260ff16815260200191505060405180910390f35b610309600480360360208110156102f357600080fd5b8101908080359060200190929190505050610a5f565b604051808273ffffffffffffffffffffffffffffffffffffffff16815260200191505060405180910390f35b61033d610a9e565b604051808273ffffffffffffffffffffffffffffffffffffffff16815260200191505060405180910390f35b600560009054906101000a900460ff1681565b60028081111561038857fe5b600560009054906101000a900460ff1660028111156103a357fe5b14610416576040517f08c379a000000000000000000000000000000000000000000000000000000000815260040180806020018281038252601a8152602001807f566f74696e67206973206e6f7420636f6d706c6574656421212100000000000081525060200191505060405180910390fd5b60005b6001805490508110156105c957600454600260006001848154811061043a57fe5b9060005260206000200160009054906101000a900473ffffffffffffffffffffffffffffffffffffffff1673ffffffffffffffffffffffffffffffffffffffff1673ffffffffffffffffffffffffffffffffffffffff16815260200190815260200160002060009054906101000a900460ff1660ff1611156105bc5760026000600183815481106104c757fe5b9060005260206000200160009054906101000a900473ffffffffffffffffffffffffffffffffffffffff1673ffffffffffffffffffffffffffffffffffffffff1673ffffffffffffffffffffffffffffffffffffffff16815260200190815260200160002060009054906101000a900460ff1660ff166004819055506001818154811061055057fe5b9060005260206000200160009054906101000a900473ffffffffffffffffffffffffffffffffffffffff16600360006101000a81548173ffffffffffffffffffffffffffffffffffffffff021916908373ffffffffffffffffffffffffffffffffffffffff1602179055505b8080600101915050610419565b50565b6105d5816106ea565b610647576040517f08c379a00000000000000000000000000000000000000000000000000000000081526004018080602001828103825260168152602001807f43616e646964617465206e6f742076616c69642121210000000000000000000081525060200191505060405180910390fd5b6001600281111561065457fe5b600560009054906101000a900460ff16600281111561066f57fe5b1461067657fe5b6001600260008373ffffffffffffffffffffffffffffffffffffffff1673ffffffffffffffffffffffffffffffffffffffff16815260200190815260200160002060008282829054906101000a900460ff160192506101000a81548160ff021916908360ff16021790555050565b60045481565b600080600090505b600180549050811015610781578273ffffffffffffffffffffffffffffffffffffffff166001828154811061072357fe5b9060005260206000200160009054906101000a900473ffffffffffffffffffffffffffffffffffffffff1673ffffffffffffffffffffffffffffffffffffffff161415610774576001915050610787565b80806001019150506106f2565b50600090505b919050565b60008054906101000a900473ffffffffffffffffffffffffffffffffffffffff1673ffffffffffffffffffffffffffffffffffffffff163373ffffffffffffffffffffffffffffffffffffffff16141561085b576002808111156107ec57fe5b600560009054906101000a900460ff16600281111561080757fe5b14610835576001600560006101000a81548160ff0219169083600281111561082b57fe5b021790555061085a565b6002600560006101000a81548160ff0219169083600281111561085457fe5b02179055505b5b565b60008054906101000a900473ffffffffffffffffffffffffffffffffffffffff1673ffffffffffffffffffffffffffffffffffffffff163373ffffffffffffffffffffffffffffffffffffffff161415610915576001819080600181540180825580915050600190039060005260206000200160009091909190916101000a81548173ffffffffffffffffffffffffffffffffffffffff021916908373ffffffffffffffffffffffffffffffffffffffff1602179055505b50565b60008054906101000a900473ffffffffffffffffffffffffffffffffffffffff1681565b6000610947826106ea565b6109b9576040517f08c379a00000000000000000000000000000000000000000000000000000000081526004018080602001828103825260168152602001807f43616e646964617465206e6f742076616c69642121210000000000000000000081525060200191505060405180910390fd5b600160028111156109c657fe5b600560009054906101000a900460ff1660028111156109e157fe5b146109e857fe5b600260008373ffffffffffffffffffffffffffffffffffffffff1673ffffffffffffffffffffffffffffffffffffffff16815260200190815260200160002060009054906101000a900460ff1660ff169050919050565b60026020528060005260406000206000915054906101000a900460ff1681565b60018181548110610a6f57600080fd5b906000526020600020016000915054906101000a900473ffffffffffffffffffffffffffffffffffffffff1681565b600360009054906101000a900473ffffffffffffffffffffffffffffffffffffffff168156fea2646970667358221220c67114a68b08bbfbd613e6edf3f82620266a2bd55fe3888a546270ea056dac7464736f6c63430007050033",
					"opcodes": "PUSH1 0x80 PUSH1 0x40 MSTORE CALLVALUE DUP1 ISZERO PUSH2 0x10 JUMPI PUSH1 0x0 DUP1 REVERT JUMPDEST POP CALLER PUSH1 0x0 DUP1 PUSH2 0x100 EXP DUP2 SLOAD DUP2 PUSH20 0xFFFFFFFFFFFFFFFFFFFFFFFFFFFFFFFFFFFFFFFF MUL NOT AND SWAP1 DUP4 PUSH20 0xFFFFFFFFFFFFFFFFFFFFFFFFFFFFFFFFFFFFFFFF AND MUL OR SWAP1 SSTORE POP PUSH2 0xAFA DUP1 PUSH2 0x60 PUSH1 0x0 CODECOPY PUSH1 0x0 RETURN INVALID PUSH1 0x80 PUSH1 0x40 MSTORE CALLVALUE DUP1 ISZERO PUSH2 0x10 JUMPI PUSH1 0x0 DUP1 REVERT JUMPDEST POP PUSH1 0x4 CALLDATASIZE LT PUSH2 0xB4 JUMPI PUSH1 0x0 CALLDATALOAD PUSH1 0xE0 SHR DUP1 PUSH4 0xC0C45A81 GT PUSH2 0x71 JUMPI DUP1 PUSH4 0xC0C45A81 EQ PUSH2 0x1B2 JUMPI DUP1 PUSH4 0xCE606EE0 EQ PUSH2 0x1F6 JUMPI DUP1 PUSH4 0xD209CD68 EQ PUSH2 0x22A JUMPI DUP1 PUSH4 0xDB9B13ED EQ PUSH2 0x282 JUMPI DUP1 PUSH4 0xDF2D5EC7 EQ PUSH2 0x2DD JUMPI DUP1 PUSH4 0xDFBF53AE EQ PUSH2 0x335 JUMPI PUSH2 0xB4 JUMP JUMPDEST DUP1 PUSH4 0x200D2ED2 EQ PUSH2 0xB9 JUMPI DUP1 PUSH4 0x65372147 EQ PUSH2 0xE2 JUMPI DUP1 PUSH4 0x6DD7D8EA EQ PUSH2 0xEC JUMPI DUP1 PUSH4 0x7B3A74C6 EQ PUSH2 0x130 JUMPI DUP1 PUSH4 0x947DA8DC EQ PUSH2 0x14E JUMPI DUP1 PUSH4 0xC0336629 EQ PUSH2 0x1A8 JUMPI JUMPDEST PUSH1 0x0 DUP1 REVERT JUMPDEST PUSH2 0xC1 PUSH2 0x369 JUMP JUMPDEST PUSH1 0x40 MLOAD DUP1 DUP3 PUSH1 0x2 DUP2 GT ISZERO PUSH2 0xD1 JUMPI INVALID JUMPDEST DUP2 MSTORE PUSH1 0x20 ADD SWAP2 POP POP PUSH1 0x40 MLOAD DUP1 SWAP2 SUB SWAP1 RETURN JUMPDEST PUSH2 0xEA PUSH2 0x37C JUMP JUMPDEST STOP JUMPDEST PUSH2 0x12E PUSH1 0x4 DUP1 CALLDATASIZE SUB PUSH1 0x20 DUP2 LT ISZERO PUSH2 0x102 JUMPI PUSH1 0x0 DUP1 REVERT JUMPDEST DUP2 ADD SWAP1 DUP1 DUP1 CALLDATALOAD PUSH20 0xFFFFFFFFFFFFFFFFFFFFFFFFFFFFFFFFFFFFFFFF AND SWAP1 PUSH1 0x20 ADD SWAP1 SWAP3 SWAP2 SWAP1 POP POP POP PUSH2 0x5CC JUMP JUMPDEST STOP JUMPDEST PUSH2 0x138 PUSH2 0x6E4 JUMP JUMPDEST PUSH1 0x40 MLOAD DUP1 DUP3 DUP2 MSTORE PUSH1 0x20 ADD SWAP2 POP POP PUSH1 0x40 MLOAD DUP1 SWAP2 SUB SWAP1 RETURN JUMPDEST PUSH2 0x190 PUSH1 0x4 DUP1 CALLDATASIZE SUB PUSH1 0x20 DUP2 LT ISZERO PUSH2 0x164 JUMPI PUSH1 0x0 DUP1 REVERT JUMPDEST DUP2 ADD SWAP1 DUP1 DUP1 CALLDATALOAD PUSH20 0xFFFFFFFFFFFFFFFFFFFFFFFFFFFFFFFFFFFFFFFF AND SWAP1 PUSH1 0x20 ADD SWAP1 SWAP3 SWAP2 SWAP1 POP POP POP PUSH2 0x6EA JUMP JUMPDEST PUSH1 0x40 MLOAD DUP1 DUP3 ISZERO ISZERO DUP2 MSTORE PUSH1 0x20 ADD SWAP2 POP POP PUSH1 0x40 MLOAD DUP1 SWAP2 SUB SWAP1 RETURN JUMPDEST PUSH2 0x1B0 PUSH2 0x78C JUMP JUMPDEST STOP JUMPDEST PUSH2 0x1F4 PUSH1 0x4 DUP1 CALLDATASIZE SUB PUSH1 0x20 DUP2 LT ISZERO PUSH2 0x1C8 JUMPI PUSH1 0x0 DUP1 REVERT JUMPDEST DUP2 ADD SWAP1 DUP1 DUP1 CALLDATALOAD PUSH20 0xFFFFFFFFFFFFFFFFFFFFFFFFFFFFFFFFFFFFFFFF AND SWAP1 PUSH1 0x20 ADD SWAP1 SWAP3 SWAP2 SWAP1 POP POP POP PUSH2 0x85D JUMP JUMPDEST STOP JUMPDEST PUSH2 0x1FE PUSH2 0x918 JUMP JUMPDEST PUSH1 0x40 MLOAD DUP1 DUP3 PUSH20 0xFFFFFFFFFFFFFFFFFFFFFFFFFFFFFFFFFFFFFFFF AND DUP2 MSTORE PUSH1 0x20 ADD SWAP2 POP POP PUSH1 0x40 MLOAD DUP1 SWAP2 SUB SWAP1 RETURN JUMPDEST PUSH2 0x26C PUSH1 0x4 DUP1 CALLDATASIZE SUB PUSH1 0x20 DUP2 LT ISZERO PUSH2 0x240 JUMPI PUSH1 0x0 DUP1 REVERT JUMPDEST DUP2 ADD SWAP1 DUP1 DUP1 CALLDATALOAD PUSH20 0xFFFFFFFFFFFFFFFFFFFFFFFFFFFFFFFFFFFFFFFF AND SWAP1 PUSH1 0x20 ADD SWAP1 SWAP3 SWAP2 SWAP1 POP POP POP PUSH2 0x93C JUMP JUMPDEST PUSH1 0x40 MLOAD DUP1 DUP3 DUP2 MSTORE PUSH1 0x20 ADD SWAP2 POP POP PUSH1 0x40 MLOAD DUP1 SWAP2 SUB SWAP1 RETURN JUMPDEST PUSH2 0x2C4 PUSH1 0x4 DUP1 CALLDATASIZE SUB PUSH1 0x20 DUP2 LT ISZERO PUSH2 0x298 JUMPI PUSH1 0x0 DUP1 REVERT JUMPDEST DUP2 ADD SWAP1 DUP1 DUP1 CALLDATALOAD PUSH20 0xFFFFFFFFFFFFFFFFFFFFFFFFFFFFFFFFFFFFFFFF AND SWAP1 PUSH1 0x20 ADD SWAP1 SWAP3 SWAP2 SWAP1 POP POP POP PUSH2 0xA3F JUMP JUMPDEST PUSH1 0x40 MLOAD DUP1 DUP3 PUSH1 0xFF AND DUP2 MSTORE PUSH1 0x20 ADD SWAP2 POP POP PUSH1 0x40 MLOAD DUP1 SWAP2 SUB SWAP1 RETURN JUMPDEST PUSH2 0x309 PUSH1 0x4 DUP1 CALLDATASIZE SUB PUSH1 0x20 DUP2 LT ISZERO PUSH2 0x2F3 JUMPI PUSH1 0x0 DUP1 REVERT JUMPDEST DUP2 ADD SWAP1 DUP1 DUP1 CALLDATALOAD SWAP1 PUSH1 0x20 ADD SWAP1 SWAP3 SWAP2 SWAP1 POP POP POP PUSH2 0xA5F JUMP JUMPDEST PUSH1 0x40 MLOAD DUP1 DUP3 PUSH20 0xFFFFFFFFFFFFFFFFFFFFFFFFFFFFFFFFFFFFFFFF AND DUP2 MSTORE PUSH1 0x20 ADD SWAP2 POP POP PUSH1 0x40 MLOAD DUP1 SWAP2 SUB SWAP1 RETURN JUMPDEST PUSH2 0x33D PUSH2 0xA9E JUMP JUMPDEST PUSH1 0x40 MLOAD DUP1 DUP3 PUSH20 0xFFFFFFFFFFFFFFFFFFFFFFFFFFFFFFFFFFFFFFFF AND DUP2 MSTORE PUSH1 0x20 ADD SWAP2 POP POP PUSH1 0x40 MLOAD DUP1 SWAP2 SUB SWAP1 RETURN JUMPDEST PUSH1 0x5 PUSH1 0x0 SWAP1 SLOAD SWAP1 PUSH2 0x100 EXP SWAP1 DIV PUSH1 0xFF AND DUP2 JUMP JUMPDEST PUSH1 0x2 DUP1 DUP2 GT ISZERO PUSH2 0x388 JUMPI INVALID JUMPDEST PUSH1 0x5 PUSH1 0x0 SWAP1 SLOAD SWAP1 PUSH2 0x100 EXP SWAP1 DIV PUSH1 0xFF AND PUSH1 0x2 DUP2 GT ISZERO PUSH2 0x3A3 JUMPI INVALID JUMPDEST EQ PUSH2 0x416 JUMPI PUSH1 0x40 MLOAD PUSH32 0x8C379A000000000000000000000000000000000000000000000000000000000 DUP2 MSTORE PUSH1 0x4 ADD DUP1 DUP1 PUSH1 0x20 ADD DUP3 DUP2 SUB DUP3 MSTORE PUSH1 0x1A DUP2 MSTORE PUSH1 0x20 ADD DUP1 PUSH32 0x566F74696E67206973206E6F7420636F6D706C65746564212121000000000000 DUP2 MSTORE POP PUSH1 0x20 ADD SWAP2 POP POP PUSH1 0x40 MLOAD DUP1 SWAP2 SUB SWAP1 REVERT JUMPDEST PUSH1 0x0 JUMPDEST PUSH1 0x1 DUP1 SLOAD SWAP1 POP DUP2 LT ISZERO PUSH2 0x5C9 JUMPI PUSH1 0x4 SLOAD PUSH1 0x2 PUSH1 0x0 PUSH1 0x1 DUP5 DUP2 SLOAD DUP2 LT PUSH2 0x43A JUMPI INVALID JUMPDEST SWAP1 PUSH1 0x0 MSTORE PUSH1 0x20 PUSH1 0x0 KECCAK256 ADD PUSH1 0x0 SWAP1 SLOAD SWAP1 PUSH2 0x100 EXP SWAP1 DIV PUSH20 0xFFFFFFFFFFFFFFFFFFFFFFFFFFFFFFFFFFFFFFFF AND PUSH20 0xFFFFFFFFFFFFFFFFFFFFFFFFFFFFFFFFFFFFFFFF AND PUSH20 0xFFFFFFFFFFFFFFFFFFFFFFFFFFFFFFFFFFFFFFFF AND DUP2 MSTORE PUSH1 0x20 ADD SWAP1 DUP2 MSTORE PUSH1 0x20 ADD PUSH1 0x0 KECCAK256 PUSH1 0x0 SWAP1 SLOAD SWAP1 PUSH2 0x100 EXP SWAP1 DIV PUSH1 0xFF AND PUSH1 0xFF AND GT ISZERO PUSH2 0x5BC JUMPI PUSH1 0x2 PUSH1 0x0 PUSH1 0x1 DUP4 DUP2 SLOAD DUP2 LT PUSH2 0x4C7 JUMPI INVALID JUMPDEST SWAP1 PUSH1 0x0 MSTORE PUSH1 0x20 PUSH1 0x0 KECCAK256 ADD PUSH1 0x0 SWAP1 SLOAD SWAP1 PUSH2 0x100 EXP SWAP1 DIV PUSH20 0xFFFFFFFFFFFFFFFFFFFFFFFFFFFFFFFFFFFFFFFF AND PUSH20 0xFFFFFFFFFFFFFFFFFFFFFFFFFFFFFFFFFFFFFFFF AND PUSH20 0xFFFFFFFFFFFFFFFFFFFFFFFFFFFFFFFFFFFFFFFF AND DUP2 MSTORE PUSH1 0x20 ADD SWAP1 DUP2 MSTORE PUSH1 0x20 ADD PUSH1 0x0 KECCAK256 PUSH1 0x0 SWAP1 SLOAD SWAP1 PUSH2 0x100 EXP SWAP1 DIV PUSH1 0xFF AND PUSH1 0xFF AND PUSH1 0x4 DUP2 SWAP1 SSTORE POP PUSH1 0x1 DUP2 DUP2 SLOAD DUP2 LT PUSH2 0x550 JUMPI INVALID JUMPDEST SWAP1 PUSH1 0x0 MSTORE PUSH1 0x20 PUSH1 0x0 KECCAK256 ADD PUSH1 0x0 SWAP1 SLOAD SWAP1 PUSH2 0x100 EXP SWAP1 DIV PUSH20 0xFFFFFFFFFFFFFFFFFFFFFFFFFFFFFFFFFFFFFFFF AND PUSH1 0x3 PUSH1 0x0 PUSH2 0x100 EXP DUP2 SLOAD DUP2 PUSH20 0xFFFFFFFFFFFFFFFFFFFFFFFFFFFFFFFFFFFFFFFF MUL NOT AND SWAP1 DUP4 PUSH20 0xFFFFFFFFFFFFFFFFFFFFFFFFFFFFFFFFFFFFFFFF AND MUL OR SWAP1 SSTORE POP JUMPDEST DUP1 DUP1 PUSH1 0x1 ADD SWAP2 POP POP PUSH2 0x419 JUMP JUMPDEST POP JUMP JUMPDEST PUSH2 0x5D5 DUP2 PUSH2 0x6EA JUMP JUMPDEST PUSH2 0x647 JUMPI PUSH1 0x40 MLOAD PUSH32 0x8C379A000000000000000000000000000000000000000000000000000000000 DUP2 MSTORE PUSH1 0x4 ADD DUP1 DUP1 PUSH1 0x20 ADD DUP3 DUP2 SUB DUP3 MSTORE PUSH1 0x16 DUP2 MSTORE PUSH1 0x20 ADD DUP1 PUSH32 0x43616E646964617465206E6F742076616C696421212100000000000000000000 DUP2 MSTORE POP PUSH1 0x20 ADD SWAP2 POP POP PUSH1 0x40 MLOAD DUP1 SWAP2 SUB SWAP1 REVERT JUMPDEST PUSH1 0x1 PUSH1 0x2 DUP2 GT ISZERO PUSH2 0x654 JUMPI INVALID JUMPDEST PUSH1 0x5 PUSH1 0x0 SWAP1 SLOAD SWAP1 PUSH2 0x100 EXP SWAP1 DIV PUSH1 0xFF AND PUSH1 0x2 DUP2 GT ISZERO PUSH2 0x66F JUMPI INVALID JUMPDEST EQ PUSH2 0x676 JUMPI INVALID JUMPDEST PUSH1 0x1 PUSH1 0x2 PUSH1 0x0 DUP4 PUSH20 0xFFFFFFFFFFFFFFFFFFFFFFFFFFFFFFFFFFFFFFFF AND PUSH20 0xFFFFFFFFFFFFFFFFFFFFFFFFFFFFFFFFFFFFFFFF AND DUP2 MSTORE PUSH1 0x20 ADD SWAP1 DUP2 MSTORE PUSH1 0x20 ADD PUSH1 0x0 KECCAK256 PUSH1 0x0 DUP3 DUP3 DUP3 SWAP1 SLOAD SWAP1 PUSH2 0x100 EXP SWAP1 DIV PUSH1 0xFF AND ADD SWAP3 POP PUSH2 0x100 EXP DUP2 SLOAD DUP2 PUSH1 0xFF MUL NOT AND SWAP1 DUP4 PUSH1 0xFF AND MUL OR SWAP1 SSTORE POP POP JUMP JUMPDEST PUSH1 0x4 SLOAD DUP2 JUMP JUMPDEST PUSH1 0x0 DUP1 PUSH1 0x0 SWAP1 POP JUMPDEST PUSH1 0x1 DUP1 SLOAD SWAP1 POP DUP2 LT ISZERO PUSH2 0x781 JUMPI DUP3 PUSH20 0xFFFFFFFFFFFFFFFFFFFFFFFFFFFFFFFFFFFFFFFF AND PUSH1 0x1 DUP3 DUP2 SLOAD DUP2 LT PUSH2 0x723 JUMPI INVALID JUMPDEST SWAP1 PUSH1 0x0 MSTORE PUSH1 0x20 PUSH1 0x0 KECCAK256 ADD PUSH1 0x0 SWAP1 SLOAD SWAP1 PUSH2 0x100 EXP SWAP1 DIV PUSH20 0xFFFFFFFFFFFFFFFFFFFFFFFFFFFFFFFFFFFFFFFF AND PUSH20 0xFFFFFFFFFFFFFFFFFFFFFFFFFFFFFFFFFFFFFFFF AND EQ ISZERO PUSH2 0x774 JUMPI PUSH1 0x1 SWAP2 POP POP PUSH2 0x787 JUMP JUMPDEST DUP1 DUP1 PUSH1 0x1 ADD SWAP2 POP POP PUSH2 0x6F2 JUMP JUMPDEST POP PUSH1 0x0 SWAP1 POP JUMPDEST SWAP2 SWAP1 POP JUMP JUMPDEST PUSH1 0x0 DUP1 SLOAD SWAP1 PUSH2 0x100 EXP SWAP1 DIV PUSH20 0xFFFFFFFFFFFFFFFFFFFFFFFFFFFFFFFFFFFFFFFF AND PUSH20 0xFFFFFFFFFFFFFFFFFFFFFFFFFFFFFFFFFFFFFFFF AND CALLER PUSH20 0xFFFFFFFFFFFFFFFFFFFFFFFFFFFFFFFFFFFFFFFF AND EQ ISZERO PUSH2 0x85B JUMPI PUSH1 0x2 DUP1 DUP2 GT ISZERO PUSH2 0x7EC JUMPI INVALID JUMPDEST PUSH1 0x5 PUSH1 0x0 SWAP1 SLOAD SWAP1 PUSH2 0x100 EXP SWAP1 DIV PUSH1 0xFF AND PUSH1 0x2 DUP2 GT ISZERO PUSH2 0x807 JUMPI INVALID JUMPDEST EQ PUSH2 0x835 JUMPI PUSH1 0x1 PUSH1 0x5 PUSH1 0x0 PUSH2 0x100 EXP DUP2 SLOAD DUP2 PUSH1 0xFF MUL NOT AND SWAP1 DUP4 PUSH1 0x2 DUP2 GT ISZERO PUSH2 0x82B JUMPI INVALID JUMPDEST MUL OR SWAP1 SSTORE POP PUSH2 0x85A JUMP JUMPDEST PUSH1 0x2 PUSH1 0x5 PUSH1 0x0 PUSH2 0x100 EXP DUP2 SLOAD DUP2 PUSH1 0xFF MUL NOT AND SWAP1 DUP4 PUSH1 0x2 DUP2 GT ISZERO PUSH2 0x854 JUMPI INVALID JUMPDEST MUL OR SWAP1 SSTORE POP JUMPDEST JUMPDEST JUMP JUMPDEST PUSH1 0x0 DUP1 SLOAD SWAP1 PUSH2 0x100 EXP SWAP1 DIV PUSH20 0xFFFFFFFFFFFFFFFFFFFFFFFFFFFFFFFFFFFFFFFF AND PUSH20 0xFFFFFFFFFFFFFFFFFFFFFFFFFFFFFFFFFFFFFFFF AND CALLER PUSH20 0xFFFFFFFFFFFFFFFFFFFFFFFFFFFFFFFFFFFFFFFF AND EQ ISZERO PUSH2 0x915 JUMPI PUSH1 0x1 DUP2 SWAP1 DUP1 PUSH1 0x1 DUP2 SLOAD ADD DUP1 DUP3 SSTORE DUP1 SWAP2 POP POP PUSH1 0x1 SWAP1 SUB SWAP1 PUSH1 0x0 MSTORE PUSH1 0x20 PUSH1 0x0 KECCAK256 ADD PUSH1 0x0 SWAP1 SWAP2 SWAP1 SWAP2 SWAP1 SWAP2 PUSH2 0x100 EXP DUP2 SLOAD DUP2 PUSH20 0xFFFFFFFFFFFFFFFFFFFFFFFFFFFFFFFFFFFFFFFF MUL NOT AND SWAP1 DUP4 PUSH20 0xFFFFFFFFFFFFFFFFFFFFFFFFFFFFFFFFFFFFFFFF AND MUL OR SWAP1 SSTORE POP JUMPDEST POP JUMP JUMPDEST PUSH1 0x0 DUP1 SLOAD SWAP1 PUSH2 0x100 EXP SWAP1 DIV PUSH20 0xFFFFFFFFFFFFFFFFFFFFFFFFFFFFFFFFFFFFFFFF AND DUP2 JUMP JUMPDEST PUSH1 0x0 PUSH2 0x947 DUP3 PUSH2 0x6EA JUMP JUMPDEST PUSH2 0x9B9 JUMPI PUSH1 0x40 MLOAD PUSH32 0x8C379A000000000000000000000000000000000000000000000000000000000 DUP2 MSTORE PUSH1 0x4 ADD DUP1 DUP1 PUSH1 0x20 ADD DUP3 DUP2 SUB DUP3 MSTORE PUSH1 0x16 DUP2 MSTORE PUSH1 0x20 ADD DUP1 PUSH32 0x43616E646964617465206E6F742076616C696421212100000000000000000000 DUP2 MSTORE POP PUSH1 0x20 ADD SWAP2 POP POP PUSH1 0x40 MLOAD DUP1 SWAP2 SUB SWAP1 REVERT JUMPDEST PUSH1 0x1 PUSH1 0x2 DUP2 GT ISZERO PUSH2 0x9C6 JUMPI INVALID JUMPDEST PUSH1 0x5 PUSH1 0x0 SWAP1 SLOAD SWAP1 PUSH2 0x100 EXP SWAP1 DIV PUSH1 0xFF AND PUSH1 0x2 DUP2 GT ISZERO PUSH2 0x9E1 JUMPI INVALID JUMPDEST EQ PUSH2 0x9E8 JUMPI INVALID JUMPDEST PUSH1 0x2 PUSH1 0x0 DUP4 PUSH20 0xFFFFFFFFFFFFFFFFFFFFFFFFFFFFFFFFFFFFFFFF AND PUSH20 0xFFFFFFFFFFFFFFFFFFFFFFFFFFFFFFFFFFFFFFFF AND DUP2 MSTORE PUSH1 0x20 ADD SWAP1 DUP2 MSTORE PUSH1 0x20 ADD PUSH1 0x0 KECCAK256 PUSH1 0x0 SWAP1 SLOAD SWAP1 PUSH2 0x100 EXP SWAP1 DIV PUSH1 0xFF AND PUSH1 0xFF AND SWAP1 POP SWAP2 SWAP1 POP JUMP JUMPDEST PUSH1 0x2 PUSH1 0x20 MSTORE DUP1 PUSH1 0x0 MSTORE PUSH1 0x40 PUSH1 0x0 KECCAK256 PUSH1 0x0 SWAP2 POP SLOAD SWAP1 PUSH2 0x100 EXP SWAP1 DIV PUSH1 0xFF AND DUP2 JUMP JUMPDEST PUSH1 0x1 DUP2 DUP2 SLOAD DUP2 LT PUSH2 0xA6F JUMPI PUSH1 0x0 DUP1 REVERT JUMPDEST SWAP1 PUSH1 0x0 MSTORE PUSH1 0x20 PUSH1 0x0 KECCAK256 ADD PUSH1 0x0 SWAP2 POP SLOAD SWAP1 PUSH2 0x100 EXP SWAP1 DIV PUSH20 0xFFFFFFFFFFFFFFFFFFFFFFFFFFFFFFFFFFFFFFFF AND DUP2 JUMP JUMPDEST PUSH1 0x3 PUSH1 0x0 SWAP1 SLOAD SWAP1 PUSH2 0x100 EXP SWAP1 DIV PUSH20 0xFFFFFFFFFFFFFFFFFFFFFFFFFFFFFFFFFFFFFFFF AND DUP2 JUMP INVALID LOG2 PUSH5 0x6970667358 0x22 SLT KECCAK256 0xC6 PUSH18 0x14A68B08BBFBD613E6EDF3F82620266A2BD5 0x5F 0xE3 DUP9 DUP11 SLOAD PUSH3 0x70EA05 PUSH14 0xAC7464736F6C6343000705003300 "
				},
				"gasEstimates": {
					"creation": {
						"codeDepositCost": "562000",
						"executionCost": "21460",
						"totalCost": "583460"
					},
					"external": {
						"candidatesList(uint256)": "2099",
						"contractOwner()": "1066",
						"registerCandidates(address)": "42883",
						"result()": "infinite",
						"setStatus()": "22934",
						"status()": "1068",
						"validadeCandidate(address)": "infinite",
						"vote(address)": "infinite",
						"votesCount(address)": "infinite",
						"votesRecieved(address)": "1266",
						"winner()": "1157",
						"winnerVotes()": "1072"
					}
				},
				"methodIdentifiers": {
					"candidatesList(uint256)": "df2d5ec7",
					"contractOwner()": "ce606ee0",
					"registerCandidates(address)": "c0c45a81",
					"result()": "65372147",
					"setStatus()": "c0336629",
					"status()": "200d2ed2",
					"validadeCandidate(address)": "947da8dc",
					"vote(address)": "6dd7d8ea",
					"votesCount(address)": "d209cd68",
					"votesRecieved(address)": "db9b13ed",
					"winner()": "dfbf53ae",
					"winnerVotes()": "7b3a74c6"
				}
			},
			"storageLayout": {
				"storage": [
					{
						"astId": 3,
						"contract": "contracts/voting.sol:voting",
						"label": "contractOwner",
						"offset": 0,
						"slot": "0",
						"type": "t_address"
					},
					{
						"astId": 6,
						"contract": "contracts/voting.sol:voting",
						"label": "candidatesList",
						"offset": 0,
						"slot": "1",
						"type": "t_array(t_address)dyn_storage"
					},
					{
						"astId": 10,
						"contract": "contracts/voting.sol:voting",
						"label": "votesRecieved",
						"offset": 0,
						"slot": "2",
						"type": "t_mapping(t_address,t_uint8)"
					},
					{
						"astId": 12,
						"contract": "contracts/voting.sol:voting",
						"label": "winner",
						"offset": 0,
						"slot": "3",
						"type": "t_address"
					},
					{
						"astId": 14,
						"contract": "contracts/voting.sol:voting",
						"label": "winnerVotes",
						"offset": 0,
						"slot": "4",
						"type": "t_uint256"
					},
					{
						"astId": 20,
						"contract": "contracts/voting.sol:voting",
						"label": "status",
						"offset": 0,
						"slot": "5",
						"type": "t_enum(votingStatus)18"
					}
				],
				"types": {
					"t_address": {
						"encoding": "inplace",
						"label": "address",
						"numberOfBytes": "20"
					},
					"t_array(t_address)dyn_storage": {
						"base": "t_address",
						"encoding": "dynamic_array",
						"label": "address[]",
						"numberOfBytes": "32"
					},
					"t_enum(votingStatus)18": {
						"encoding": "inplace",
						"label": "enum voting.votingStatus",
						"numberOfBytes": "1"
					},
					"t_mapping(t_address,t_uint8)": {
						"encoding": "mapping",
						"key": "t_address",
						"label": "mapping(address => uint8)",
						"numberOfBytes": "32",
						"value": "t_uint8"
					},
					"t_uint256": {
						"encoding": "inplace",
						"label": "uint256",
						"numberOfBytes": "32"
					},
					"t_uint8": {
						"encoding": "inplace",
						"label": "uint8",
						"numberOfBytes": "1"
					}
				}
			},
			"userdoc": {
				"kind": "user",
				"methods": {},
				"version": 1
			}
		}
	}
}